:020000040000fa
:020000040100f9
:100200000000fa00cfad2000007f2200000188002e
:1002100000000000020007000080fa000000060055
:100220000000fa000000eb00203a88006602070098
:100230002c020700ae0107000b000700fdff37008e
:100240003400f800881f780008002000a80188000a
:100250004f0478000000fa000000fe000080fa0061
:100260003400f900004006000400fa0060508000ed
:100270004c00de000080fb006101b900028fbe006f
:10028000e0002000010020001e01be00800f510090
:10029000818f59002f003e001e00be00006001004b
:1002a0000e0037000d0037000c0037002900370022
:1002b0001000370013003700260037001300370006
:1002c00024003700130037001400370017003700f0
:1002d000180037000900370012003700d38aa80041
:1002e000d3aaa900d3caa900d3eaa9002000070015
:1002f0001d003700ae0007001b003700ce000700ce
:1003000019003700070107001700370062000700d7
:10031000150037007700070013003700440107007d
:1003200011003700450107000f0037006701070083
:100330000d003700f9010700c0568800d38aa800d5
:10034000d3aaa900d3caa900d3eaa90008000700cc
:1003500005003700d38aa800d3aaa800d3caa900f1
:10036000d3eaa900020007000080fa00000006009e
:100370000000fa009156800000002f00808060008d
:1003800000002100808f500006003200915680004e
:1003900000002f008080600000002300808f50004c
:1003a00003003a000040eb00d2eab7000200370039
:1003b00010c0b300d2eab700605080004c00de00ed
:1003c0000080fb006f0060004801dd009156800056
:1003d000f00f2f000080600002007000905688002f
:1003e0009156800000f02000808060000010200006
:1003f000808f500005003a000fcabf000080fb004c
:100400000080e800a0568800200037009156800048
:1004100000f020008080600000202000808f5000cd
:100420000d003a00705080000000d1006300b90058
:100430000080e800a05688007050800061006000d5
:100440000004e00011003200a05680000080e800a7
:10045000a05688000d0037009156800000f0200063
:100460008080600000c02000808f500005003a00ae
:1004700030002000a0568800c0568000b05688008a
:100480000200370020002000a05688002a01070043
:100490000080fa00000006000000fa00f0042400ca
:1004a000003b880061c7a80057052000373b880043
:1004b000a70a2000373b880061e7a8000000000081
:1004c0000000000061c7bf0001c8b3000140600028
:1004d0000004e000fbff3a00d38aa800d3aaa900d9
:1004e000d3caa900d3eaa900a1ff07000080fa003f
:1004f000000006000600fa0020042400003b8800eb
:100500000ecabf000080fb0001002000c001dd001a
:10051000020020008050800001002000001f4100e8
:10052000019749000000eb002007980014003700f5
:1005300061c7a80057052000373b8800a70a2000a4
:10054000373b880061e7a8000000000000000000c1
:1005500061c7bf0001c8b300014060000004e000b3
:10056000fbff3a0000042000010020001e0f4000a5
:100570005e9748002e0090000000e80020079800d9
:100580000fcabf008080fb002e009000808f5000bb
:10059000e7ff3e00d38aa800d3aaa900d3caa900c6
:1005a000d3eaa90072ff07000080fa0000000600ed
:1005b0000400fa000ecabf000080fb009001880012
:1005c00000002400003b8800905080001007980035
:1005d00080508000000f78009e0090001e00780080
:1005e0000108bb0061c7a80050052000303b88000f
:1005f000a00a2000303b880061e7a800000000004e
:10060000000000001007980061c7bf0001c8b300d8
:10061000014060000004e000fbff3a00d38aa8001c
:10062000d3aaa900d3caa900d3eaa90050ff0700a2
:100630000080fa00000006000400fa000ecabf00a5
:100640000080fb009001880030002400003b8800ff
:10065000905080001007980080508000000f7800b4
:100660009e0090001e0078000108bb000fcabf006a
:100670000080fb00100798009e0090001e0078008c
:1006800001c8bb0061c7a80050052000303b8800ae
:10069000a00a2000303b880061e7a80000000000ad
:1006a000000000001007980061c7bf0001c8b30038
:1006b000014060000004e000fbff3a001e007800eb
:1006c0001000ba0010079800d38aa900d3aaa80086
:1006d000d3caa900d3eaa900915080001e0090005f
:1006e000808f50000c003a001e00780010c0ba0045
:1006f000100798001e009000804078000fcabf00cd
:1007000080cf500004003a00d38aa800d3aaa900e1
:10071000d3caa900d3eaa90015ff07000080fa0098
:100720000000060010002400003b8800c5a0200047
:100730000000eb0025449000a50490006683420071
:10074000980188008903780000012000b60bbb00e7
:10075000b6dbbb00b6ebbb00b61bbb00b60bbb00e9
:10076000b6dbbb00b6ebbb00b61bbb000000e9006c
:10077000f6ff3a0005000900460b780080002000d3
:1007800080835300b60bbb0061c7a800570520004b
:10079000373b8800a70a2000373b880061e7a800a4
:1007a0000000000000000000003b800000f0a300fb
:1007b000fdff3100050007004c00dd0021ad2000e9
:1007c00080087800eafe070000000600c0a02000b4
:1007d0008000eb0020449000a0049000c70020009f
:1007e000e60140009801880089027800f4012000a9
:1007f0001503ba003330e1000b003a00b5dbba0054
:10080000d5d3ba003330e10007003a003503ba000f
:100810003330e10004003a000402e900f4ff3b0039
:10082000100020000100370020002000000006001a
:100830003220ef00e7ff2f0005003700c0a02000a6
:10084000b001900093018800c0019000e283510044
:100850000082eb00e6ff2f00c0a020009001900076
:10086000200190001200b1000380b1000e003200a0
:100870005700ba000480e7000900370017c0ba002b
:100880000484e700060037000730e100f5ff3a0076
:10089000900180000000e80090018800f1ff37001f
:1008a000f100200001003700010f200000a021000e
:1008b0000100700023ad2000801978002000200086
:1008c000800978001c00070000000600810220005b
:1008d00000b021000100700021ad200080187800d8
:1008e00020002000800878001300070000000600a8
:1008f0006d000700c7a02000801b7800f3ff2000d8
:10090000830160008301e9000400320066000700f3
:10091000801b78008301e900fcff3a0041e2a90056
:10092000005020001012880048a2ef0041e2a80009
:1009300048a2ef00000006004822ef004022ef002e
:100940000000000041e2a8004822ef000000000083
:100950004022ef001d0009000000000000402000c0
:10096000101288008540a90041e2a80027ad2000b0
:100970003700780040128800370078004f000700e9
:1009800020ad2000900290008582e90038003200fe
:1009900010409000f040b20011c0b3000104e1002b
:1009a0000a003a00c0a02000a04090008180fb0017
:1009b00091018800a00390003700ba003f000700b3
:1009c0008502e900fcff3a002900370021c0b3008e
:1009d0000104e1002e003a00c0a020009002900027
:1009e0000503d1004000b000904078000104780079
:1009f000d0007800810378000500e900150032007e
:100a00000100200098018800000000009708ba004b
:100a10002a00070097d8ba002700b0000880b0006d
:100a2000980188000000000097d0ba00230007005a
:100a30001700ba00210007002700b0000880b000ae
:100a4000980188000603e900eeff3a000500a600c1
:100a50000700370098018800000000001700ba0066
:100a60001600070017c0ba000080fb001300070043
:100a70008540ae00feff37008540a90041e2a90095
:100a80004362a80041e2a800411280000000060075
:100a9000c1c0b3000104e100f5ff3a00370078005f
:100aa00006000700f2ff37008540ae00feff37006a
:100ab0008540a9004012800000000600811f7800d8
:100ac0008540ae00feff37008540ae00fcff3700da
:100ad0008540a9004112800040128800cf007800b4
:100ae0000000060010028000000ab3001002880017
:100af00000c02000101288008540a900a820ef0047
:100b0000a900a8009540a800000028000012880055
:100b10006227ef006427ef00000006000c00fa00d7
:100b20006000b80020079800310798006000b80006
:100b300040079800510798000fcabf00004f780087
:100b4000640047008080e8000ecabf00804878003b
:100b5000805080006101b8002e009000be0090001f
:100b60000000710081807100200798003107980013
:100b7000680047008080e80090508000800878007e
:100b8000a05080006101b8004e009000de0090008f
:100b900000007100818071004007980051079800a3
:100ba0004e019000de0190002e009000be009000eb
:100bb0001e4278002d000700100798001e009000cc
:100bc0000080fa00000006000600fa000000eb00ba
:100bd000100798001f0037001e0090004800dd003d
:100be0002007980080c0b300004f78000e00370047
:100bf0002e0090000000e00007003d002e00900055
:100c00000000400080007800100221000080680091
:100c100020079800030037002e00900000004000dd
:100c2000200798001e4fe9001e04e000f0ff3a0084
:100c30001e00900080004000c08020000080400026
:100c4000ae009000010878001e0090000000e8004f
:100c5000100798009e009000f00f2000808f500039
:100c6000ddff34000080fa00000006001a00fa00e0
:100c70006007980071079800020f9800130f980002
:100c8000445798000080eb00400798006e019000e8
:100c9000fe01900000002000110020000200400032
:100ca0008380480002002000f3ff2f00000278003c
:100cb0008102780002007800830078000001620061
:100cc000018062006102b800340f9800450f98005f
:100cd0003e089000ce089000c000dd00000020001b
:100ce000300f9800410f98003e089000ce08900009
:100cf0006112b800340f9800450f98003e0990002b
:100d0000ce099000020070008380700010079800e8
:100d1000210798003c0037000e0890009e089000c4
:100d200000014000818148006e009000fe009000ac
:100d300002014000838148001e009000ae00900038
:100d4000800f5100818f59001a0039001e01900058
:100d5000ae0190006e009000fe0090000000510077
:100d6000818059008100d1000080d30030079800b5
:100d70001e019000ae019000000020001100200034
:100d80000200400083804800100798002107980067
:100d90003e0090006101b8000e0890009e0890008f
:100da0000200500083805800000f9800110f980037
:100db000050037008e099000330798006000b800e6
:100dc000000f9800110f9800ce0190003e01900096
:100dd0006e009000fe00900032000700400798006f
:100de0003e00900001002000000140008181480089
:100df0006e009000fe0090000000410081804900dc
:100e000060079800710798000e0890009e089000f7
:100e1000e00f5000e08f5800bfff3a004e009000f6
:100e2000010020000080fa000000060026032000d8
:100e3000010b780080037800a6802000020b780068
:100e40000a28d500c880200006802000171bba00a1
:100e500037dbba0057dbba00371bba00048020002a
:100e6000650020000380fd0003407800b440780056
:100e700000c068000160ef000000d20008004000e0
:100e8000100078008041eb00808169000a20ed00ad
:100e9000f4ff3a000a28ed00ebff3a000300780067
:100ea0000000060026032000010b78008003780074
:100eb000a6802000020b78000a28d500c8802000f8
:100ec0006200200006802000171bba0037dbba0042
:100ed00057dbba00371bba00048020003500200021
:100ee0008000eb000380fd0003407800b4486800f8
:100ef0000160ef000000d200080040008041eb00dc
:100f0000108969000380fd0003407800b448680040
:100f10000160ef000000d200080040008041eb00bb
:100f2000108969000a20ed00eeff3a000a28ed0062
:0c0f3000e4ff3a00030078000000060017
:020000040000fa
:020000040100f9
:100f3c00da0a000002000000000000000c0a0000a9
:100f4c00ce000000000000000c08000000020000b1
:100f5c0000000000000800000c0000000000000071
:040f6c000000000081
:020000040000fa
:020000040100f9
:080fe000cb0000002800000016
:020000040000fa
:020000040100f9
:080000008000040080000000f4
:020000040000fa
:020000040100f9
:100008002001800020018000200180002001800064
:100018002001800020018000200180002001800054
:100028002001800020018000200180002001800044
:100038002001800020018000200180002001800034
:100048002001800020018000200180002001800024
:100058002001800020018000200180002001800014
:100068002001800020018000200180002001800004
:1000780020018000200180002001800020018000f4
:1000880020018000200180002001800020018000e4
:1000980020018000200180002001800020018000d4
:1000a80020018000200180002001800020018000c4
:1000b80020018000200180002001800020018000b4
:1000c80020018000200180002001800020018000a4
:1000d8002001800020018000200180002001800094
:1000e8002001800020018000200180002001800084
:1000f8002001800020018000200180002001800074
:100108002001800020018000200180002001800063
:100118002001800020018000200180002001800053
:100128002001800020018000200180002001800043
:100138002001800020018000200180002001800033
:100148002001800020018000200180002001800023
:100158002001800020018000200180002001800013
:100168002001800020018000200180002001800003
:1001780020018000200180002001800020018000f3
:1001880020018000200180002001800020018000e3
:1001980020018000200180002001800020018000d3
:1001a80020018000200180002001800020018000c3
:1001b80020018000200180002001800020018000b3
:1001c80020018000200180002001800020018000a3
:1001d8002001800020018000200180002001800093
:1001e8002001800020018000200180002001800083
:0801f8002001800020018000bd
:00000001FF
